:020000040000FA
:1000000018F09FE518F09FE518F09FE518F09FE5C0
:1000100018F09FE50000A0E1F0FF1FE518F09FE554
:100020005800000040000000D427000048000000F5
:100030004C000000000000005000000054000000D0
:10004000FEFFFFEAFEFFFFEAFEFFFFEAFEFFFFEA18
:10005000FEFFFFEAFEFFFFEA94009FE5AA10A0E37F
:100060005520A0E32430A0E3043080E50130A0E374
:10007000003080E50C1080E50C2080E5083090E52C
:10008000013B13E2FCFFFF0A0330A0E3003080E5F0
:100090000C1080E50C2080E558009FE50410A0E3DB
:1000A000041080E50210A0E3001080E548009FE501
:1000B000DBF021E300D0A0E1080040E2D7F021E32B
:1000C00000D0A0E1080040E2D1F021E300D0A0E19F
:1000D000080040E2D2F021E300D0A0E1030C40E2AE
:1000E000D3F021E300D0A0E1030C40E20C009FE537
:1000F00010FF2FE180C01FE000C01FE0C03C0040A7
:1001000004010000000000EB2E0000EB2C008FE249
:10011000000C90E800A08AE000B08BE001704AE299
:100120000B005AE10000001A260000EB0F00BAE8AD
:1001300018E04FE2010013E303F0471013FF2FE133
:100140004028000060280000102052E27800B0280B
:100150007800A128FBFFFF8A822EB0E13000B02892
:100160003000A12800409045004081451EFF2FE14E
:100170000030B0E30040B0E30050B0E30060B0E313
:10018000102052E27800A128FCFFFF8A822EB0E105
:100190003000A128003081451EFF2FE101C08FE211
:1001A0001CFF2FE11FB5059886460FBC009C02B0CE
:1001B0007047000001C08FE21CFF2FE130B475468C
:1001C000AE4630BC70470000420900EB0210A0E1CF
:1001D000F1FFFFEB1CC09FE50FC08CE001001CE3AA
:1001E0000DE08F120FE0A0011CFF2FE101C08FE294
:1001F0001CFF2FE102F0A0FAF90200007847C04688
:1002000003002DE9EAFFFFEB0300BDE8510900EB15
:100210000C009FE50C109FE504209FE508309FE54A
:100220001EFF2FE1A0360040A8390040A036004054
:1002300001002DE900204DE90000A0E104D04DE2CD
:100240000100BDE8004020E900E0A0E10100BDE8B8
:10025000FF7F4EE90000A0E13CE04EE200004FE1EC
:1002600001002EE94C009FE5000090E501002EE919
:1002700044009FE5001090E500E081E53C009FE52B
:100280000FE0A0E110FF2FE12C009FE5000090E5BA
:1002900000E090E51C009FE50200BEE8001080E54C
:1002A0000100BEE800F06FE1FF7FDEE80000A0E1A2
:1002B0003CE09EE504F05EE2A80000406C000040D7
:1002C0009D06000000205BE041004118514A515C4E
:1002D000002902D0012950D127E0410041184D4AA0
:1002E0008918897800290CD14B4989684200821805
:1002F000484BD218537801229A409143464A916064
:1003000012E041004118434A8918897801290BD12C
:1003100041498968420082183E4BD2185378012225
:100320009A4011433C4A916028E041004118394A03
:100330008918897800290CD13749896942008218C7
:10034000344BD218537801229A409143324A91613A
:1003500012E0410041182F4A8918897801290BD1F0
:100360002D498969420082182A4BD21853780122FC
:100370009A401143284A916100E0C046C046401CA3
:100380002649098888429FDB70470200002A02D074
:10039000012A0CD105E0204B1B68CB40D807C00FC9
:1003A00005E01D4B1B69CB40D807C00FC046C046B7
:1003B000704710B4002802D0012827D113E0002A8A
:1003C00007D1154BDB6801248C402343124CE360BA
:1003D00008E0012A06D1104B5B6801248C402343BE
:1003E0000D4C636012E0002A07D10B4BDB6901243E
:1003F0008C402343084CE36108E0012A06D1064BF8
:100400005B6901248C402343034C6361C04610BCEC
:100410007047000000000040008002E05A000040E9
:1004200020E00A214548006801F012FD012815D19D
:1004300000240AE00A2142A000F006F9002500E0AD
:100440006D1C42488542FBD3641C0A2CF2D3002366
:100450001A0019003948006801F036FBFF20F5301A
:1004600000F02CFCDDE71CE00A213448006801F0B4
:10047000EFFC012812D1002407E00A2134A000F08B
:10048000E3F8052000F01AFC641C0A2CF5D30023C5
:100490001A0019002948006801F016FB642000F0DA
:1004A0000DFCE1E77D20C0002C49C86008004068D1
:1004B0000121084329494860704710B5E1204002F6
:1004C00000F070F8FFF7FEFEFFF7ECFF0120244973
:1004D000087010BC08BC184782B0FFF7EEFF01207F
:1004E00001F084FB15490860E120400200F05AF851
:1004F0001C48022100236422009101901AA1204887
:1005000000F0D9F91F4801210023642200910190D5
:100510001DA1234800F0CFF900F0A8FDC046FEE77A
:100520000E484068022108430C49486008004068B2
:100530000221884309494860704700006400004078
:10054000737472696E675F320A000000A086010052
:10055000737472696E675F310A000000008000E00A
:1005600000C11FE05C0000405461736B315F736534
:100570006E64537472696E675F3130306D73000062
:1005800067040000600000405461736B325F736564
:100590006E64537472696E675F3530306D7300003E
:1005A0002104000070B505005A48006801210904C3
:1005B000084358490860080000680121890408437D
:1005C000544908602E013100534802F0D1F804006C
:1005D0005248007B80210843504908730C70240A5C
:1005E0000C7107200872032008734814C06880212A
:1005F00088434B49C8600800006980210843484986
:1006000008614848484948602720484948604348AD
:100610000079032108434149087170BC08BC1847A0
:10062000010043480078012809D10020404A107099
:10063000404800780006001608700120704700202E
:10064000FCE7364A1070704770B505000C003A4858
:100650000078002820D1002D1ED038490C70364972
:100660000C70002303E0E85C3549C8545B1CA342CE
:10067000F9DB31490A780978491E2F4E31702F492C
:100680000978891A2E4A515C09060816FFF7D9FF26
:10069000012070BC08BC18470020FAE710B41F4ABC
:1006A000107A2EE00207120F022A0BD0042A1CD067
:1006B000062A02D00C2A20D116E0184A127D110613
:1006C00009161BE01C4A1278002A0CDD1A4A13781E
:1006D0001278521E184C2270184A1278D21A184BEF
:1006E0009A5C0E4B1A7009E0C0460C4A1278114B06
:1006F0001A7001220E4B1A7000E0C046C046074A2D
:10070000107AC207D20F002ACCD00022044B1A6301
:1007100010BC704700C002E000879303000001E0B6
:1007200000F0FFFF3002000000F1FFFF00F2FFFFCA
:1007300069000040680000406B0000406A00004013
:10074000C400004010B5002406E014216143FE4AB5
:10075000881801F05FF8641C042CF6D3FB4801F004
:1007600059F8FB4801F056F8FA4801F053F8FA48F6
:1007700001F050F8F94801F04DF8F448F8490860E4
:10078000F348F849086010BC08BC184710B50400CD
:1007900001F064FDF4480068401CF3490860F34828
:1007A0000068002808D1F1480460080000680128AA
:1007B0000ED1FFF7C7FF0BE0ED480068002807D116
:1007C000EA480068C06AE16A884201D8E7480460E4
:1007D000E8480068401CE7490860E749E06A0968A2
:1007E000884202D9E449E06A08601422E16A514370
:1007F000D54A8818211D01F01DF801F03AFDDC48AA
:100800000068002807D0D9480068C06AE16A8842B9
:1008100001D202F089F810BC08BC1847FFB581B0BE
:100820000E000A9F0C9C216B0398401E8000081844
:1008300000900098C008C0000090002E11D0002544
:1008400008E0715D200034304155705D002800D112
:1008500002E06D1C082DF4D3C04600213B20015559
:1008600002E0002134200155042F00D30327E76262
:10087000E76300202064201D00F0D9FF200018301D
:1008800000F0D5FF24610420C01BA0616462002039
:100890006064002148200155049A684603C801F0AD
:1008A00075FC20600B98002801D00B98046005B0FF
:1008B000F0BC08BC1847FFB585B01700B80001F0C0
:1008C00024FD0600002E0BD04C2001F01EFD04007C
:1008D000002C01D0266304E0300001F06BFD00E045
:1008E0000024002C10D000220EA803C86B4613C3AE
:1008F00003923A00089B05A803C8FFF78FFF20006A
:10090000FFF744FF012501E00025ED43280009B071
:10091000F0BC08BC1847924909680968002901D150
:10092000012100E00021002904D00021C943934A9D
:10093000116006E08A490968C968C8688F4A416839
:100940001160704710B50400206B01F033FD2000EA
:1009500001F030FD10BC08BC184770B5050001F06F
:100960007DFC002D02D18148006800E028000400D1
:10097000201D00F087FFA06A002803D02000183057
:1009800000F080FF7B480068401C7A490860774887
:100990000068844209D1211D6F4800F04BFF784860
:1009A0000068401C7649086009E06F480068401EF6
:1009B0006D4908602000FFF7C5FFFFF7ACFF01F0AD
:1009C00058FC6B480068002805D0684800688442DD
:1009D00001D101F0A9FF70BC08BC1847F8B5002090
:1009E00000906848006800286AD167480068451C84
:1009F00065480560002D0FD15948076859480068BF
:100A0000574908605748076060480068401C5F49C4
:100A10000860FFF780FFC0465848006885423DD314
:100A2000C0464F4800680068002801D1012000E05E
:100A30000020002804D00020C043504908602CE06A
:100A400047480068C068C4686668B54202D24B482F
:100A5000066022E0201D00F015FFA06A002803D0E8
:100A60002000183000F00EFF4349E06A0968884210
:100A700002D94149E06A08601422E16A5143324ACE
:100A80008818211D00F0D6FE3849E06A0968C96A55
:100A90008842C6D301200090C3E7C04633480068AF
:100AA000C06A1421484328490858012801D9012067
:100AB000009037480068002801D00120009004E031
:100AC00034480068401C334908600098F8BC08BCF2
:100AD000184770B50024002601F0C0FB29480068C3
:100AE000401E2849086008000068002876D11E488A
:100AF0000068002872D022E01648C068C468200050
:100B0000183000F0BFFE201D00F0BCFE1A49E06A5C
:100B10000968884202D91849E06A08601422E16A2B
:100B20005143094A8818211D00F084FE0F49E06AEC
:100B30000968C96A884202D301201549086005483E
:100B4000006800282AD127E08C010040DC01004029
:100B5000F001004004020040180200402C02004056
:100B600070000040740000407C0000406C000040B9
:100B70008800004098000040840000409C00004035
:100B800078000040A4000040800000409400004035
:100B9000900000408C000040012000E00020002870
:100BA000AAD0002C01D0FFF7B6FEFE480568002D44
:100BB0000DD0C046FFF712FF002802D00120FA49ED
:100BC00008606D1E002DF5D10020F6490860F6483A
:100BD0000068002802D0012601F0A6FE01F049FBC2
:100BE000300070BC08BC1847F8B505000E00EF488F
:100BF0000768EF480068001D00F044FE681C0028EC
:100C000008D1002E06D0EA480168091DE94800F025
:100C100011FE1AE07C19E64800684460BC4207D225
:100C2000E3480168091DE448006800F00FFE0CE08D
:100C3000DF480168091DE148006800F007FEE04850
:100C40000068844201D2DE480460F8BC08BC184742
:100C5000DC480068401CDB4908607047F3B581B090
:100C6000040000200090FFF7F3FFD04806682168D9
:100C700002980D182068B04207D92068A8420BD905
:100C8000B54209D90120009006E02068A84201D8A9
:100C9000B54201D90120009025600098002803D0BA
:100CA000A81B0021FFF7A0FFFFF713FF0700002F8D
:100CB00001D101F039FEFEBC08BC184770B5040034
:100CC0000025002C08D0FFF7C3FF00212000FFF70C
:100CD0008BFFFFF7FEFE0500002D01D101F024FE81
:100CE00070BC08BC184770B5040001F0B7FA002CBE
:100CF00002D1AF48006800E020000600F56A01F06C
:100D0000B8FA280070BC08BC184710B401000023D2
:100D1000002902D1A64C246800E00C002200D06A11
:100D200010BC7047FEB507000D0000200090042D98
:100D300000D3032501F092FA002F02D19C480068ED
:100D400000E038000400E66BAE4249D0B5420BD952
:100D50009748006884420DD095480068C06AA84250
:100D600008D80120009005E091480068844201D134
:100D700001200090E06A0190E16AE06B884200D1B6
:100D8000E562E563A069C00FC007002802D1042016
:100D9000401BA06161691422019850438A4A80185F
:100DA000814201D1012000E00020002812D0201D46
:100DB00000F068FD8549E06A0968884202D98349E4
:100DC000E06A08601422E16A51437F4A8818211DB5
:100DD00000F030FD0098002801D001F0A5FDC046CC
:100DE00001F047FAFEBC08BC1847764800680028A6
:100DF00003D001206C49086027E000206A490860A0
:100E00007248016800E0491E142048436E4A105899
:100E1000002801D1012000E000200028F3D1142295
:100E20004A43694BD0184268526842600200083257
:100E30004368934202D14268526842604268D26875
:100E40005B4B1A6061480160C046704770B5050091
:100E500001F004FA002D02D15548006800E0280096
:100E60000400201D00F00EFDA06A002803D0200021
:100E7000183000F007FD211D4E4800F0DBFC482033
:100E8000005D012802D100214820015501F0F1F94F
:100E90004F480068002805D001F0E0F9FFF73BFD5E
:100EA00001F0E7F942480068844212D148480068DE
:100EB000002802D001F038FD0BE03E4800684549AB
:100EC0000968884203D100203949086001E0FFF732
:100ED0008CFF70BC08BC184710B4010000200A0049
:100EE000344C5369A34201D1012300E00023002BBD
:100EF00011D0394C936AA34201D1012300E00023B1
:100F0000002B08D1936A002B01D1012300E00023BC
:100F1000002B00D0012010BC704770B505002C00DC
:100F200023480068844225D0002C23D001F096F994
:100F30002000FFF7D1FF00281AD0201D00F0A2FCEE
:100F40002249E06A0968884202D92049E06A0860BB
:100F50001422E16A51431C4A8818211D00F06AFCE2
:100F60001349E06A0968C96A884201D301F0DCFCD0
:100F700001F07FF970BC08BC1847F8B505000026E1
:100F80002C0000272000FFF7A7FF002840D00D48C5
:100F90000068002837D10649E06A0968C96A8842B2
:100FA0001DD31BE08C0000409000004080000040FA
:100FB0006C0000402C0200407400004070000040B3
:100FC0009C000040A40000408C01004084000040D0
:100FD000880000407C000040040200400126201DE3
:100FE00000F050FCF949E06A0968884202D9F749E3
:100FF000E06A08601422E16A5143F54A8818211D0D
:1010000000F018FC04E021001831F24800F012FC56
:101010003000F8BC08BC184710B516E001F01EF906
:10102000ED48C068C468201D00F02CFCEB48006847
:10103000401EEA490860EA480068401EE849086026
:1010400001F017F92000FFF77DFCE5480068002853
:10105000E4D110BC08BC1847C046FFF7DDFFDC48F0
:1010600000680128F9D901F05FFCF6E71CB5DD48FE
:1010700000210B005A2200910190DBA1DC48FFF710
:101080001AFC0400012C0CD101F052FCA01ED9491D
:1010900008600120D84908600020D849086001F0A4
:1010A000D3F81CBC08BC184710B501F041FC002067
:1010B000D149086001F0D1F810BC08BC184710B540
:1010C00001F0CCF8CD48046801F0D3F8200010BC42
:1010D00008BC18470021C94A10687047BF4800681B
:1010E00070470100002902D1C548006800E00800EF
:1010F000020010003430704770B504000025FFF77F
:10110000A7FDC04800680019BE490860FFF7E1FC70
:101110000500280070BC08BC184770B505000C001D
:10112000B74801681831280000F090FB0121200029
:10113000FFF75AFD70BC08BC184770B506000C00DC
:1011400015000120C0072043AD4909688861AC48FB
:1011500001681831300000F06DFB01212800FFF715
:1011600043FD70BC08BC184770B50600F068C46841
:101170002000183000F086FBA3480068002813D137
:10118000201D00F07FFB9149E06A0968884202D97E
:101190008E49E06A08601422E16A51438C4A88183B
:1011A000211D00F047FB04E021001831894800F0C0
:1011B00041FB9349E06A0968C96A884204D901255C
:1011C00001209249086000E00025280070BC08BC9E
:1011D000184770B505000E000120C0073043286095
:1011E000EC68280000F04EFB201D00F04BFB774917
:1011F000E06A0968884202D97449E06A08601422EA
:10120000E16A5143724A8818211D00F013FB7C49A2
:10121000E06A0968C96A884202D901207B490860EE
:1012200070BC08BC184710B5040001F017F87848E6
:101230000068206071480068606001F01AF810BC16
:1012400008BC18477249096801606C490968416027
:10125000704770B506000C0001F000F8674802689E
:101260007068131A2068401C002801D1002517E07F
:10127000674930680968884204D07068904201D894
:1012800001250DE02068984207D92068C01A206027
:101290003000FFF7D7FF002502E000202060012585
:1012A00000F0E7FF280070BC08BC18470120574930
:1012B0000860704752490868704770B505002C00F7
:1012C0000026002D42D04E49E06A0968C96A88426A
:1012D00035D2A069C00FC007002805D14848006872
:1012E000C06A0421081AA0611422E06A5043384AF7
:1012F00080186169814201D1012000E000200028AE
:1013000017D0201D00F0BEFA3D480068C06AE062B8
:101310002E49E06A0968884202D92C49E06A0860CF
:101320001422E16A51432A4A8818211D00F082FAEA
:1013300003E033480068C06AE062012606E03049F5
:10134000E06B0968C96A884200D20126300070BC8F
:1013500008BC184770B505002C000026002D23D0CE
:10136000206C401E2064E16BE06A88421CD0206C37
:10137000002819D1201D00F085FAE06BE0620421FD
:10138000E06A081AA0611149E06A0968884202D936
:101390000E49E06A08601422E16A51430C4A881839
:1013A000211D00F047FA0126300070BC08BC184728
:1013B000FEB506000F00340001200090002E5BD027
:1013C000E06BB84226D23D0025E0000084000040DA
:1013D0008C01004004020040180200407C000040E4
:1013E00078000040A000004049444C450000000047
:1013F000591000009C000040880000408000004020
:101400006C0000408C000040A400004090000040B0
:1014100094000040E56BE06AA8422DD0206C0128C2
:101420002AD1E06A0190E562A069C00FC0070028D8
:1014300002D10420401BA06161691422019850432D
:10144000EE4A8018814201D1012000E000200028EE
:1014500012D0201D00F016FAE949E06A09688842B6
:1014600002D9E749E06A08601422E16A5143E34A7D
:101470008818211D00F0DEF9FEBC08BC1847E149C0
:1014800009688869DF490968C96A0422511ADD4A76
:10149000126891617047DB480068002806D0D9497E
:1014A000096808004030096C491C0160D548006893
:1014B000704770B506000D0000F0D0FED1480068FE
:1014C000406C00280BD10121CE48006840300172E9
:1014D000002D04D02800FFF787FB01F025FA00F06B
:1014E000C8FE00F0BBFEC7480068446C002C0AD060
:1014F000002E04D00020C3490968486403E0601E40
:10150000C049096848640021BE4800684030017243
:1015100000F0AFFE200070BC08BC1847FFB581B0DA
:10152000070014001D0000F099FEB6480068403026
:10153000007A022812D0B349096808004430496C87
:10154000B94301600121AF48006840300172002DAD
:1015500004D02800FFF748FB01F0E6F900F089FE0F
:1015600000F07CFE002C03D0A6480068406C206090
:10157000A44800684030007A022801D0002608E024
:10158000A0490968080044304A6C02998A43026005
:10159000012600219B4800684030017200F069FE7E
:1015A000300005B0F0BC08BC1847FFB583B00D0093
:1015B00016001F0001200290039C00F04FFE002F38
:1015C00001D0606C38604820005D01900221482005
:1015D0000155330001F0C2F9051604080C0E17007E
:1015E000606C284360640FE0606C401C60640BE03A
:1015F000656409E00198022801D0656401E00020DB
:10160000029001E000E0C046C046019801281AD1CE
:10161000201D00F037F97A49E06A0968884202D94A
:101620007749E06A08601422E16A5143734A8818D6
:10163000211D00F0FFF87349E06A0968C96A884211
:1016400001D901F071F900F014FE029807B0F0BC66
:1016500008BC1847FFB583B00D0016001F0001201D
:101660000190039C00200090002F01D0606C386036
:101670004820005D0290022148200155330001F00E
:101680006DF9051604080C0E1700606C28436064A1
:101690000FE0606C401C60640BE0656409E0029838
:1016A000022801D0656401E00020019001E000E023
:1016B000C046C046029801282BD153480068002834
:1016C00013D1201D00F0DEF84D49E06A0968884218
:1016D00002D94B49E06A08601422E16A5143474A43
:1016E0008818211D00F0A6F804E0210018314748B1
:1016F00000F0A0F84349E06A0968C96A884208D93D
:101700000C98002802D001210C980160012040496A
:101710000860019807B0F0BC08BC1847F8B5050090
:101720000E002C00002000904820075D022101558A
:10173000606C401C6064012F29D133480068002888
:1017400013D1201D00F09EF82D49E06A09688842F7
:1017500002D92B49E06A08601422E16A5143274A02
:101760008818211D00F066F804E021001831274890
:1017700000F060F82349E06A0968C96A884206D91E
:10178000002E01D001203060012021490860F8BC02
:1017900008BC184770B50500002D02D11948006833
:1017A00000E02800060000F059FD4820805D022876
:1017B00004D1002148208155012400E0002400F0DC
:1017C00058FD200070BC08BC1847F8B504000D0097
:1017D000002C02D10B48006800E02000060000F059
:1017E0003DFD08480068476C706CA843706400F0C9
:1017F00040FD3800F8BC08BC184700008C010040D0
:10180000840000406C000040A4000040040200403E
:10181000900000400100083141600021C94381600F
:1018200001000831C16001610021016070470021A1
:101830000161704742684A6093688B6093685960A1
:101840009160086103685B1C0360704710B402007C
:101850000B685C1C002C01D1106907E010000830F7
:1018600000E04068446824689C42FAD944684C60AF
:101870004C68A160886041600A611468641C14604F
:1018800010BC704701000A694B6888689860081DA1
:1018900009C858605068884201D1886850600020AB
:1018A00008611068401E10601068704770B5050030
:1018B0000E002C0000F0D2FC216CE06B4843216844
:1018C0004018A0600020A06320686060E06B401EAC
:1018D000216C484321684118E1600021C94344203C
:1018E000015545200155002E10D12069002801D155
:1018F000012000E00020002810D120001030FFF768
:1019000033FC00280AD001F00FF807E02000103067
:10191000FFF780FF20002430FFF77CFF00F0A9FCD8
:10192000012070BC08BC1847F8B506000D00170070
:10193000069C002D01D1246000E02760E663256449
:1019400001212000FFF7B2FFF8BC08BC1847FEB524
:1019500005000E001700280070430290029908004D
:10196000483000F0D2FC0400002C0BD00194019C04
:101970002000483001903B00009431002800019A7B
:10198000FFF7D2FF2000FEBC08BC184770B504006A
:1019900000F064FC4520055714E0606A002801D17E
:1019A000012000E00020002808D120002430FFF7AB
:1019B000DBFB002803D0FFF779FC00E004E0681EA1
:1019C00000060516002DE8DCC0460021C94345206D
:1019D000015500F04EFC00F041FC4420055714E096
:1019E0002069002801D1012000E0002000280BD14F
:1019F00020001030FFF7B8FB002801D0FFF756FC9D
:101A0000681E0006051600E001E0002DE8DCC04677
:101A10000021C9434420015500F02BFC70BC08BCD8
:101A2000184770B5050000F019FCA86BE96B8842F7
:101A300001D1012400E0002400F01BFC200070BC58
:101A400008BC1847F8B504000F00150000200090EE
:101A5000A66B206C002809D1206800282ED1A06830
:101A6000FFF778FC00900020A06027E0002D0FD148
:101A70003900226C606800F0CDFC216C6068401871
:101A80006060A1686068884218D32068606015E0D3
:101A90003900226CE06800F0BDFC216CE068411A5E
:101AA000E1602168E068884203D2216CA068411A95
:101AB000E160022D02D1002E00D0761E701CA063C2
:101AC0000098F8BC08BC1847FFB583B007001D009C
:101AD000002002903C00C04600F0C0FBA06BE16B10
:101AE000884201D3022D21D12A0020000499FFF75A
:101AF000A9FF0600606A002801D1012000E0002053
:101B0000002808D120002430FFF72EFB002806D043
:101B100000F00AFF03E0002E01D000F005FF00F006
:101B2000A8FB012007B0F0BC08BC184705980028A6
:101B300003D100F09EFB0020F4E70298002804D1B6
:101B40006846FFF77FFB0120029000F092FBFFF751
:101B50007FF800F083FB44210857401C002802D185
:101B600000214420015545210857401C002802D17E
:101B700000214520015500F07CFB05A96846FFF7D0
:101B800068FB002819D12000FFF74BFF00280ED07A
:101B9000200010300599FFF7C0FA2000FFF7F6FE8D
:101BA000FEF797FF002897D100F0BEFE94E72000D3
:101BB000FFF7ECFEFEF78DFF8EE72000FFF7E6FE55
:101BC000FEF787FF0020ADE710B50400002C0AD017
:101BD0000020A06020600021E16000231A001900AD
:101BE0002000FFF771FF10BC08BC1847F8B50400CF
:101BF00001260027220000210120FFF7A8FE050092
:101C00002800FFF7E1FF2800F8BC08BC1847FFB523
:101C100085B0050016001F002C0000200390A06B6B
:101C2000E16B884201D3022F29D14520015702914F
:101C3000A06B01903A0020000699FFF703FF02987D
:101C4000401C002812D1606A002801D1012000E068
:101C50000020002809D120002430FFF785FA002851
:101C600003D0002E01D00120306005E00298401C16
:101C700001060916452001550120049001E00020CD
:101C80000490049809B0F0BC08BC1847FEB50500E4
:101C90000E002C0000200290A06B0190E16B0198D7
:101CA000814224D94520015700910198401CA0632E
:101CB0000098401C002812D1606A002801D1012040
:101CC00000E00020002810D120002430FFF74CFA5B
:101CD00000280AD0002E08D00120306005E00098CE
:101CE000401C0106091645200155012700E0002788
:101CF0003800FEBC08BC184770B5050000F0AEFA0D
:101D0000A86B002801D1012400E0002400F0B1FA02
:101D1000200070BC08BC184770B504000D00206C92
:101D200000280ED0216CE0684118E160A168E068ED
:101D3000884201D32168E1602800226CE16800F04C
:101D400069FB70BC08BC1847F7B582B005000027D6
:101D50002C00C04600F082FAA66B002E1CD020009A
:101D60000399FFF7D9FF701EA0632069002801D1F5
:101D7000012000E00020002807D120001030FFF7EC
:101D8000F3F9002801D000F0CFFD00F072FA012035
:101D900005B0F0BC08BC18470498002803D100F037
:101DA00068FA0020F4E7002F03D16846FFF74AFAEB
:101DB000012700F05EFAFEF74BFF00F04FFA4421D6
:101DC0000857401C002802D100214420015545211C
:101DD0000857401C002802D100214520015500F081
:101DE00048FA04A96846FFF734FA002819D1200000
:101DF000FFF782FF00280ED0200024300499FFF75F
:101E00008CF92000FFF7C2FDFEF763FE0028A1D188
:101E100000F08AFD9EE72000FFF7B8FDFEF759FEAF
:101E200098E72000FFF7B2FDFEF753FE2000FFF712
:101E300063FF00288ED00020AAE701004A6A002A2A
:101E400004D00A6B12680423981A00E0002070473F
:101E5000F3B583B0050000272C0000200090C04699
:101E600000F0FCF9A66B002E1ED0701EA063206847
:101E7000002802D1FFF70FFBA0602069002801D1E4
:101E8000012000E00020002807D120001030FFF7DB
:101E90006BF9002801D000F047FD00F0EAF90120BD
:101EA00005B0F0BC08BC18470498002803D100F026
:101EB000E0F90020F4E7002F03D101A8FFF7C2F9F1
:101EC000012700F0D6F9FEF7C3FE00F0C7F9442160
:101ED0000857401C002802D100214420015545210B
:101EE0000857401C002802D100214520015500F070
:101EF000C0F904A901A8FFF7ACF9002824D12000FB
:101F0000FFF7FAFE002819D02068002807D100F05A
:101F1000A5F9A068FFF7D1F9009000F0AAF9200018
:101F200024300499FFF7F9F82000FFF72FFDFEF7A2
:101F3000D0FD002894D100F0F7FC91E72000FFF7D6
:101F400025FDFEF7C6FD8BE72000FFF71FFDFEF71E
:101F5000C0FD2000FFF7D0FE002881D000980028A7
:101F60000BD000F07BF92000FFF767FF060031007F
:101F7000A068FFF71DFA00F07CF9002090E7F7B5A4
:101F800084B0050000272C00C04600F067F9A06B64
:101F90000190019800281CD0E66820000599FFF701
:101FA000BBFEE660606A002801D1012000E000204D
:101FB000002807D120002430FFF7D6F8002801D0F0
:101FC00000F0B2FC00F055F9012007B0F0BC08BCED
:101FD00018470698002803D100F04BF90020F4E7D9
:101FE000002F03D102A8FFF72DF9012700F041F9D6
:101FF000FEF72EFE00F032F944210857401C00285D
:1020000002D100214420015545210857401C0028D9
:1020100002D100214520015500F02BF906A902A8A4
:10202000FFF717F9002819D12000FFF765FE0028F7
:102030000ED0200024300699FFF76FF82000FFF73C
:10204000A5FCFEF746FD00289FD100F06DFC9CE743
:102050002000FFF79BFCFEF73CFD96E72000FFF712
:1020600095FCFEF736FD2000FFF746FE00288CD0D9
:102070000020AAE7F7B584B0050016002C00002068
:102080000390A06B02900298002828D044200157AA
:10209000019120000599FFF73FFE0298401EA063C2
:1020A0000198401C002812D12069002801D101208C
:1020B00000E00020002810D120001030FFF754F875
:1020C00000280AD0002E08D00120306005E00198D9
:1020D000401C0106091644200155012700E0002795
:1020E000380007B0F0BC08BC1847F3B581B0050054
:1020F0002C0000200090A06B002807D0E76820008B
:102100000299FFF709FEE760012600E00026300093
:10211000FEBC08BC184770B5040000F09FF8A56B22
:1021200000F0A7F8280070BC08BC184770B5040080
:10213000250000F093F8A96BE86B461A00F099F8B7
:10214000300070BC08BC184701000A00906B704753
:1021500070B504002500280000F02CF970BC08BC04
:10216000184701000A00936B002B01D1012000E009
:102170000020704710B401000A00936BD46BA34297
:1021800001D1012000E0002010BC704730B40300F2
:10219000001F0C1D0460001F3F4C0460001F036003
:1021A000001F3E4C0460001F3D4C0460001F3D4C6E
:1021B0000460001F3C4C0460001F3C4C0460001F86
:1021C0003B4C0460001F3B4C0460001F3A4C046011
:1021D000001F3A4C0460001F394C0460001F394C4A
:1021E0000460001F64100460001F0260001F1F24B1
:1021F0000460CC07E40F002C03D0202504682C4396
:102200000460001F0024046030BC704700212E4A87
:10221000D1602E4811008861032151615114C968B1
:10222000102291432A4AD1601100096910221143FA
:10223000274A11612749284A11602421274A116041
:102240000121214A5160704710B5FFF7DFFF00F010
:10225000A3FA002010BC08BC1847704710B500F066
:1022600067FB1F480068401C1D49086010BC08BC83
:10227000184710B51A48006800280AD018480068A6
:10228000401E1749086008000068002801D100F0CE
:102290005BFB10BC08BC1847AAAAAAAA1212121209
:1022A0001111111110101010090909090808080866
:1022B00007070707060606060505050504040404C6
:1022C0000303030302020202004000E060EA000090
:1022D00000F0FFFF6028000000F1FFFF00F2FFFFA9
:1022E000A8000040454AD008C000454A10600022BE
:1022F000434B5A60434A444B5A6000221A60010023
:10230000404A4A601A000A607047F8B5040000208D
:102310000090FEF79DFC3D480068002804D1FFF7BF
:10232000E1FF012039490860002C09D0083460071A
:10233000400F002804D06007400F0821081A041934
:10234000002C31D02F4884422ED22D4F3800056802
:1023500001E02F002D686868A04202D2286800289A
:10236000F7D1294885421FD0386808300090286886
:1023700038606868001B102810D92E196868001B87
:1023800070606C6071681E4800E000680268526806
:102390008A42FAD3026832600660C0461C49686807
:1023A0000968081A1A490860FEF793FB0098F8BC00
:1023B00008BC184770B506003500002E16D0083D41
:1023C0002C00FEF745FC61680D4800E000680268DB
:1023D00052688A42FAD30268226004600C4960683D
:1023E000096840180A490860FEF773FB70BC08BC16
:1023F00018470748006870477047000048020040CF
:10240000AC000040F8330000B4000040C0000040C1
:10241000BC0000407847C046030052E32A00009AFF
:1024200003C010E20800000A0130D1E402005CE3BE
:102430000C2082E001C0D1940130C0E40130D134DD
:1024400001C0C094042042E20130C034033011E2E4
:102450008700000A042052E21B00003A03C031E763
:10246000020053E30800000A0F00008A2C34A0E1A8
:1024700004C0B1E5042052E20C3C83E1043080E466
:10248000F9FFFF2A011081E20F0000EA2C38A0E1D9
:1024900004C0B1E5042052E20C3883E1043080E44A
:1024A000F9FFFF2A021081E2070000EA2C3CA0E1BC
:1024B00004C0B1E5042052E20C3483E1043080E42E
:1024C000F9FFFF2A031081E20000A0E1822FB0E1B2
:1024D0000130D12401C0D1240120D1440130C024D5
:1024E00001C0C0240120C0441EFF2FE1013090E153
:1024F0002100004A0020B0E3A03071E01A00003A49
:10250000203271E00F00003A203471E00100003AFF
:1025100000C0A0E3200000EAA03371E08103402066
:102520000220B2E0203371E0010340200220B2E03B
:10253000A03271E0810240200220B2E0203271E03E
:10254000010240200220B2E0A03171E08101402070
:102550000220B2E0203171E0010140200220B2E00F
:10256000A03071E0810040200220B2E0011050E074
:102570000010A0310200A2E01EFF2FE1022111E2B3
:102580000010614240C032E000006022203271E061
:102590001D00003A203471E00F00003A0113A0E161
:1025A000203471E03F2382E30B00003A0113A0E1E5
:1025B000203471E03F2682E30700003A0113A0E1D6
:1025C000203471E03F2982E30113A0213F2C8223B4
:1025D000003071E21D00002A2113A021A03371E018
:1025E000810340200220B2E0203371E0010340204B
:1025F0000220B2E0A03271E0810240200220B2E06D
:10260000203271E0010240200220B2E0A03171E0EE
:10261000810140200220B2E0203171E00101402020
:102620000220B2E0EBFFFF2AA03071E081004020E1
:102630000220B2E0011050E00010A0310200A2E040
:10264000CCCFB0E100006042001061221EFF2FE1FC
:10265000CCCFB0E10000604201402DE90000B0E3C2
:102660000000A0E10240BDE81EFF2FE17047704767
:102670007047000010402DE9202052E20500003A8A
:102680001850B1E8202052E21850A0E81850B1E8E4
:102690001850A0E8F9FFFF2A02CEB0E11850B12887
:1026A0001850A0281800B1481800A0481040BDE8F4
:1026B00002CFB0E104309124043080241EFF2F01AA
:1026C000822FB0E1B230D1200120D144B230C020FD
:1026D0000120C0441EFF2FE10E50A0E11A0000EBC4
:1026E00005E0A0E10050B0E10D10A0E10A30A0E14A
:1026F0000700C0E300D0A0E160D08DE220402DE9CA
:10270000C2F6FFEB2040BDE80060A0E30070A0E34C
:102710000080A0E300B0A0E30710C1E305C0A0E182
:10272000C009ACE8C009ACE8C009ACE8C009ACE835
:1027300001D0A0E11EFF2FE110B50400C046C04645
:102740002000FDF75BFD10BC08BC184700009FE5AA
:102750001EFF2FE14036004001C08FE21CFF2FE139
:1027600001491820ABDFFEE7260002001EFF2FE123
:102770007847C0460020B0E3203171E077FFFF3A90
:10278000A03271E06CFFFF3A203471E061FFFF3A44
:1027900000C0A0E380FFFFEA7847C0466C019FE5D8
:1027A000000090E500E090E564019FE50200BEE8CE
:1027B000001080E50100BEE800F06FE1FF7FDEE879
:1027C0000000A0E13CE09EE504F05EE2000000EFC6
:1027D0001EFF2FE104E08EE201002DE900204DE90B
:1027E0000000A0E104D04DE20100BDE8004020E976
:1027F00000E0A0E10100BDE8FF7F4EE90000A0E19C
:102800003CE04EE200004FE101002EE900019FE5AF
:10281000000090E501002EE9F0009FE5001090E532
:1028200000E081E5EC009FE50FE0A0E110FF2FE163
:10283000D8009FE5000090E500E090E5D0009FE51E
:102840000200BEE8001080E50100BEE800F06FE184
:10285000FF7FDEE80000A0E13CE09EE504F05EE2E0
:1028600001002DE900204DE90000A0E104D04DE277
:102870000100BDE8004020E900E0A0E10100BDE862
:10288000FF7F4EE90000A0E13CE04EE200004FE196
:1028900001002EE978009FE5000090E501002EE997
:1028A00068009FE5001090E500E081E568009FE585
:1028B0000FE0A0E110FF2FE1000050E30200000A4A
:1028C00050009FE50FE0A0E110FF2FE10100A0E321
:1028D00048109FE5000081E544009FE5000080E589
:1028E00028009FE5000090E500E090E520009FE5CE
:1028F0000200BEE8001080E50100BEE800F06FE1D4
:10290000FF7FDEE80000A0E13CE09EE504F05EE22F
:102910006C000040A8000040EB0D0000DD09000045
:10292000004000E030F0FFFF7847C046A6FFFFEA16
:102930007847C04600000FE1801080E301F021E1FC
:10294000800000E21EFF2FE17847C04600000FE143
:102950008000C0E300F021E11EFF2FE17847C04670
:1029600001C05EE50C0053E10100003A0C30DEE7E7
:10297000000000EA0330DEE783C08EE01CFF2FE199
:10298000A029000000000040C40000004801000031
:10299000642A0000C4000040FC3B000070010000FD
:1029A00000100000110100120100130100140100C9
:1029B0001501001601001701001801001901001A85
:1029C00001001B01001D01001E01001F010110017B
:1029D000011101011201011301011401011501018D
:1029E0001601011701011801011901011A01011B4A
:1029F00001011D01011E01011F011E000000000058
:102A000000000000000000000000000000000000C6
:102A100000000000000000000000000000000000B6
:102A200000000000000000000000000000000000A6
:102A30000000000000000000000000000000000096
:102A400000000000000000000F2700000000000050
:102A5000000000000000000000000000F83300004B
:042A60000000000072
:0400000500000104F2
:00000001FF
